{
  "contractName": "PaymentContract",
  "abi": [
    {
      "inputs": [
        {
          "internalType": "uint256",
          "name": "_ownerFeePercent",
          "type": "uint256"
        },
        {
          "internalType": "address",
          "name": "_tokenContract",
          "type": "address"
        }
      ],
      "stateMutability": "nonpayable",
      "type": "constructor"
    },
    {
      "anonymous": false,
      "inputs": [
        {
          "indexed": true,
          "internalType": "address",
          "name": "owner",
          "type": "address"
        },
        {
          "indexed": true,
          "internalType": "address",
          "name": "spender",
          "type": "address"
        },
        {
          "indexed": false,
          "internalType": "uint256",
          "name": "allowance",
          "type": "uint256"
        }
      ],
      "name": "AllowanceChecked",
      "type": "event"
    },
    {
      "anonymous": false,
      "inputs": [
        {
          "indexed": true,
          "internalType": "address",
          "name": "user",
          "type": "address"
        },
        {
          "indexed": false,
          "internalType": "uint256",
          "name": "balance",
          "type": "uint256"
        }
      ],
      "name": "BalanceChecked",
      "type": "event"
    },
    {
      "anonymous": false,
      "inputs": [
        {
          "indexed": true,
          "internalType": "address",
          "name": "from",
          "type": "address"
        },
        {
          "indexed": true,
          "internalType": "address",
          "name": "to",
          "type": "address"
        },
        {
          "indexed": false,
          "internalType": "uint256",
          "name": "amount",
          "type": "uint256"
        },
        {
          "indexed": false,
          "internalType": "uint256",
          "name": "ownerFee",
          "type": "uint256"
        },
        {
          "indexed": false,
          "internalType": "uint256",
          "name": "timestamp",
          "type": "uint256"
        }
      ],
      "name": "PaymentMade",
      "type": "event"
    },
    {
      "inputs": [],
      "name": "owner",
      "outputs": [
        {
          "internalType": "address",
          "name": "",
          "type": "address"
        }
      ],
      "stateMutability": "view",
      "type": "function",
      "constant": true
    },
    {
      "inputs": [],
      "name": "ownerFeePercent",
      "outputs": [
        {
          "internalType": "uint256",
          "name": "",
          "type": "uint256"
        }
      ],
      "stateMutability": "view",
      "type": "function",
      "constant": true
    },
    {
      "inputs": [
        {
          "internalType": "uint256",
          "name": "",
          "type": "uint256"
        }
      ],
      "name": "paymentHistory",
      "outputs": [
        {
          "internalType": "address",
          "name": "from",
          "type": "address"
        },
        {
          "internalType": "address",
          "name": "to",
          "type": "address"
        },
        {
          "internalType": "uint256",
          "name": "amount",
          "type": "uint256"
        },
        {
          "internalType": "uint256",
          "name": "timestamp",
          "type": "uint256"
        }
      ],
      "stateMutability": "view",
      "type": "function",
      "constant": true
    },
    {
      "inputs": [],
      "name": "tokenContract",
      "outputs": [
        {
          "internalType": "contract IERC20",
          "name": "",
          "type": "address"
        }
      ],
      "stateMutability": "view",
      "type": "function",
      "constant": true
    },
    {
      "inputs": [
        {
          "internalType": "address",
          "name": "_to",
          "type": "address"
        },
        {
          "internalType": "uint256",
          "name": "_amount",
          "type": "uint256"
        }
      ],
      "name": "sendPayment",
      "outputs": [],
      "stateMutability": "nonpayable",
      "type": "function"
    },
    {
      "inputs": [
        {
          "internalType": "address",
          "name": "_account",
          "type": "address"
        }
      ],
      "name": "balance",
      "outputs": [
        {
          "internalType": "uint256",
          "name": "",
          "type": "uint256"
        }
      ],
      "stateMutability": "view",
      "type": "function",
      "constant": true
    },
    {
      "inputs": [
        {
          "internalType": "address",
          "name": "_owner",
          "type": "address"
        },
        {
          "internalType": "address",
          "name": "_spender",
          "type": "address"
        }
      ],
      "name": "checkAllowance",
      "outputs": [
        {
          "internalType": "uint256",
          "name": "",
          "type": "uint256"
        }
      ],
      "stateMutability": "view",
      "type": "function",
      "constant": true
    },
    {
      "inputs": [],
      "name": "getPaymentHistory",
      "outputs": [
        {
          "components": [
            {
              "internalType": "address",
              "name": "from",
              "type": "address"
            },
            {
              "internalType": "address",
              "name": "to",
              "type": "address"
            },
            {
              "internalType": "uint256",
              "name": "amount",
              "type": "uint256"
            },
            {
              "internalType": "uint256",
              "name": "timestamp",
              "type": "uint256"
            }
          ],
          "internalType": "struct PaymentContract.Payment[]",
          "name": "",
          "type": "tuple[]"
        }
      ],
      "stateMutability": "view",
      "type": "function",
      "constant": true
    }
  ],
  "bytecode": "0x6080604052348015600f57600080fd5b5060405161082f38038061082f833981016040819052602c916061565b6000805433600160a060020a03199182161790915560019290925560028054909216600160a060020a0391909116179055609c565b60008060408385031215607357600080fd5b82516020840151909250600160a060020a0381168114609157600080fd5b809150509250929050565b610784806100ab6000396000f3fe608060405234801561001057600080fd5b50600436106100a5576000357c010000000000000000000000000000000000000000000000000000000090048063935f4c1811610078578063935f4c1814610117578063a5e047b81461012c578063b651bb611461016a578063e3d670d71461017f57600080fd5b806355a373d6146100aa5780636998de35146100da5780638b099b23146100f15780638da5cb5b14610104575b600080fd5b6002546100bd90600160a060020a031681565b604051600160a060020a0390911681526020015b60405180910390f35b6100e360015481565b6040519081526020016100d1565b6100e36100ff36600461056c565b610192565b6000546100bd90600160a060020a031681565b61012a61012536600461059f565b61022f565b005b61013f61013a3660046105c9565b6103f3565b60408051600160a060020a0395861681529490931660208501529183015260608201526080016100d1565b610172610439565b6040516100d191906105e2565b6100e361018d36600461065d565b6104c8565b6002546040517fdd62ed3e000000000000000000000000000000000000000000000000000000008152600160a060020a0384811660048301528381166024830152600092839291169063dd62ed3e90604401602060405180830381865afa158015610201573d6000803e3d6000fd5b505050506040513d601f19601f82011682018060405250810190610225919061067f565b9150505b92915050565b6000811161029d576040517f08c379a000000000000000000000000000000000000000000000000000000000815260206004820181905260248201527f416d6f756e74206d7573742062652067726561746572207468616e207a65726f604482015260640160405180910390fd5b60006064600154836102af91906106c7565b6102b991906106de565b905060006102c78284610719565b6002546040517fa9059cbb000000000000000000000000000000000000000000000000000000008152600160a060020a0387811660048301526024820184905292935091169063a9059cbb906044016020604051808303816000875af1158015610335573d6000803e3d6000fd5b505050506040513d601f19601f82011682018060405250810190610359919061072c565b506002546000546040517fa9059cbb000000000000000000000000000000000000000000000000000000008152600160a060020a0391821660048201526024810185905291169063a9059cbb906044016020604051808303816000875af11580156103c8573d6000803e3d6000fd5b505050506040513d601f19601f820116820180604052508101906103ec919061072c565b5050505050565b6003818154811061040357600080fd5b60009182526020909120600490910201805460018201546002830154600390930154600160a060020a0392831694509116919084565b60606003805480602002602001604051908101604052809291908181526020016000905b828210156104bf57600084815260209081902060408051608081018252600486029092018054600160a060020a03908116845260018083015490911684860152600282015492840192909252600301546060830152908352909201910161045d565b50505050905090565b6002546040517f70a08231000000000000000000000000000000000000000000000000000000008152600160a060020a03838116600483015260009216906370a0823190602401602060405180830381865afa15801561052c573d6000803e3d6000fd5b505050506040513d601f19601f82011682018060405250810190610229919061067f565b8035600160a060020a038116811461056757600080fd5b919050565b6000806040838503121561057f57600080fd5b61058883610550565b915061059660208401610550565b90509250929050565b600080604083850312156105b257600080fd5b6105bb83610550565b946020939093013593505050565b6000602082840312156105db57600080fd5b5035919050565b602080825282518282018190526000918401906040840190835b81811015610652578351600160a060020a038151168452600160a060020a0360208201511660208501526040810151604085015260608101516060850152506080830192506020840193506001810190506105fc565b509095945050505050565b60006020828403121561066f57600080fd5b61067882610550565b9392505050565b60006020828403121561069157600080fd5b5051919050565b7f4e487b7100000000000000000000000000000000000000000000000000000000600052601160045260246000fd5b808202811582820484141761022957610229610698565b600082610714577f4e487b7100000000000000000000000000000000000000000000000000000000600052601260045260246000fd5b500490565b8181038181111561022957610229610698565b60006020828403121561073e57600080fd5b8151801515811461067857600080fdfea264697066735822122028d28c937e617812e0392ef3ba838e0d5d6506a8be80c62baa3da72b4d1d1a8264736f6c634300081c0033",
  "immutableReferences": {},
  "source": "// SPDX-License-Identifier: MIT\npragma solidity ^0.8.0;\n\ninterface IERC20 {\n    function transfer(address recipient, uint256 amount) external returns (bool);\n    function transferFrom(address sender, address recipient, uint256 amount) external returns (bool);\n    function balanceOf(address account) external view returns (uint256);\n    function allowance(address owner, address spender) external view returns (uint256); // Allowance  \n    function approve(address spender, uint256 amount) external returns (bool); // Approve  \n}\n\ncontract PaymentContract {\n    struct Payment {\n        address from;\n        address to;\n        uint256 amount;\n        uint256 timestamp;\n    }\n\n    address public owner;\n    uint256 public ownerFeePercent;\n    IERC20 public tokenContract; // ERC20 token contract\n\n    Payment[] public paymentHistory;\n\n    event PaymentMade(address indexed from, address indexed to, uint256 amount, uint256 ownerFee, uint256 timestamp);\n    event BalanceChecked(address indexed user, uint256 balance);\n    event AllowanceChecked(address indexed owner, address indexed spender, uint256 allowance);\n\n    constructor(uint256 _ownerFeePercent, address _tokenContract) {\n        owner = msg.sender;\n        ownerFeePercent = _ownerFeePercent;\n        tokenContract = IERC20(_tokenContract); // Set the token contract\n    }\n\n    function sendPayment(address _to, uint256 _amount) external {\n        require(_amount > 0, \"Amount must be greater than zero\");\n\n        uint256 ownerFee = (_amount * ownerFeePercent) / 100;\n        uint256 recipientAmount = _amount - ownerFee;\n\n        tokenContract.transfer(_to, recipientAmount);\n        tokenContract.transfer(owner, ownerFee);\n    }\n\n    function balance(address _account) external view returns (uint256) {\n        return tokenContract.balanceOf(_account);\n    }\n\n    function checkAllowance(address _owner, address _spender) external view returns (uint256) {\n        uint256 allowedAmount = tokenContract.allowance(_owner, _spender);\n        return allowedAmount;\n    }\n\n    function getPaymentHistory() external view returns (Payment[] memory) {\n        return paymentHistory;\n    }\n}\n",
  "sourcePath": "/Users/sunsuking/Developer/Projects/2024/ttalkak/server/contract-service/contracts/contracts/PaymentContract.sol",
  "compiler": {
    "name": "solc",
    "version": "0.8.28+commit.7893614a.Emscripten.clang"
  },
  "schemaVersion": "3.4.16",
  "updatedAt": "2024-10-09T12:43:22.590Z",
  "networkType": "ethereum",
  "devdoc": {
    "kind": "dev",
    "methods": {},
    "version": 1
  },
  "userdoc": {
    "kind": "user",
    "methods": {},
    "version": 1
  }
}